:020000040020DA
:20200000F06B00209D242000EBC02000E9C02000E9C02000E9C02000E9C020000000000075
:20202000000000000000000000000000E9C02000E9C0200000000000E9C0200087C12000DD
:2020400099C120009FC12000A5C12000ABC12000000000008DC1200093C12000E9C02000C9
:20206000E9C020000000000000000000000000000000000000000000E9C0200000000000CE
:202080000000000000000000E9C02000E9C02000E9C02000E9C02000E9C02000E9C020008A
:2020A000E9C02000E9C02000E9C02000E9C02000E9C02000E9C02000E9C02000E9C02000D8
:2020C000E9C02000E9C02000E9C02000E9C02000E9C0200000000000000000000000000013
:2020E00000000000000000000000000000000000000000000000000091372000A137200000
:202100000000000000000000000000000000000000000000000000000000000000000000BF
:2021200000000000000000000000000000000000000000000000000000000000000000009F
:2021400000000000000000000000000000000000000000000000000000000000000000007F
:2021600000000000000000000000000000000000000000000000000000000000000000005F
:2021800000000000000000000000000000000000000000000000000000000000000000003F
:2021A00000000000000000000000000000000000000000000000000000000000000000001F
:2021C0000000000000000000000000000000000000000000000000000000000000000000FF
:2021E0000000000000000000000000000000000000000000000000000000000000000000DF
:202200000000000000000000000000000000000000000000000000000000000000000000BE
:2022200000000000000000000000000000000000000000000000000000000000000000009E
:2022400000000000000000000000000000000000000000000000000000000000000000007E
:2022600000000000000000000000000000000000E9C020007536200099362000352D200059
:202280000939200015292000E9C02000000000002DE9F047038806469CB0002B40F0B380B7
:2022A00069480AF011FD06AA1546684B03F11007144618685968083303C4BB422246F7D1D2
:2022C00018681B792060237128460CAA14210AF035FD01220023CDE9002340220023CDE9F7
:2022E000022314220023CDE9042314AA1546584B03F12007144618685968083303C4BB4212
:202300002246F7D104220CA9524809F0BDFD08226946514809F0B8FD082250480DEB020188
:2023200009F0B2FD082204A94D4809F0ADFD294620224C4809F0A8FD3BA1D1E900018422C6
:2023400043F21C434FF000093F4F40F28D65FA50454B464CC3E9000135A1D1E9000143E919
:202360000299C3E9040134A1D1E90001C3E9020133A1D1E90001C3E9060143F22043FD50AB
:2023800000F08AFA2A463A492060384609F03EFA00F082FA23682946C01A2060354801F079
:2023A00073FB4FF47A732068334FA0FB0301C30B43EA4141314801F067FB314801F064FBC4
:2023C000D7E900232F4801F05FFB2F4801F05CFB2E4801F059FB4C464D46DFF8B8A0DFF8B3
:2023E000B880D7E900239D4208BF944211D3284801F04AFB14480AF067FC40F6B832254975
:20240000114809F003FA0023032033801CB0BDE8F08740461AF8011B01F036FB013445F14B
:202420000005DEE7AFF3008015D9B735CA000000D9B735CA0000000006E6AD40F58E4515C7
:202440003C73FAE8442FFE8D1002002002DE20001EDE2000203600204336002063360020D7
:2024600083360020A4360020E0350020244100203EDE20007CDD20000802002092DD200061
:20248000A4DD2000BADD2000C9DD2000E3DD2000E1DD200035580020DEDD2000FF2248244B
:2024A00008B5084B08481A60084AE3690849121A98470848084A0021A369121A984701F07D
:2024C000BFFEFEE7B4200D4040000020F8010020BCE72000F8010020ED63002007B5002098
:2024E00000F070FA012000F06DFA0020104900F035FB01220F4B104604210093032301F0CF
:2025000067FA02F001FC002002F022FC01F0D8F800F034FC00F050FC0821074801F008FAB3
:2025200062B6002003B05DF804EB09F0E1BD00BFC14C2000A0860100EC57002073B51D4BCF
:202540001B68022B08DD1C491C4A1D4801F09CFA1C491D4801F098FA6846082101F0E8F939
:202560001A4E9DF806309DF80750F46A45EA03254AF6CD310220A04729460320A0471A218C
:202580000120A0470822736B69460B20984709F0E7FD00F0F1F800210D4802F00BFA0D4BF7
:2025A00001219B6881209847042009F0A1FD02B070BD00BF90000020F8DA2000E8DA200099
:2025C000FDDA20000CDB2000CFDB20009CD92000B400002034D9200018B1012804D00020B7
:2025E0007047034B18687047024B1878704700BF20B00D40FA47002010B5094A002013780B
:2026000001331370074B197802F0ACF9BDE8104005490023054A0968054801F035BF00BF72
:20262000FA4700202E58002060360020F92520004036002008B50346812B084629D0B3F568
:20264000807F37D0802B22D102F020F91B4B1C4A18701368022023F00803136052F8203CA3
:20266000032123F0080342F8203C52F81C3C23F0080342F81C3C52F8183C43F0080342F81A
:20268000183C042200F002FB0E4802F03FFA012008E00D4B0D491A6828B142F008021A608A
:2026A00004230B6008BD22F008021A600423C1F88030F7E7064B1960E9E700BF2E580020C0
:2026C00020B40D404000002010B40D4000E100E06036002008B50F4809F0FEFDC8B1082147
:2026E0000C4809F0EDFD0C4B196849B100220B4B1A700B4B1B6843B90A4A0B4801F0C4FEA0
:20270000BDE80840094802F0C9BB074801F0E2FEF6E708BD3836002060360020FA4700209E
:2027200020B00D40F92520004036002034D920000022034B1A60012243F8402C704700BF51
:2027400080C00D40054B1A6842F020021A601A6842F010021A60FFF7EBBF00BF00C40D409C
:20276000044B1B68C3F3072013F4704F04BF1030C0B270471C300D4008B5FFF7F1FF014B30
:202780001B6808BD1C300D402DE9F84300F084F810490246D1E90045AC46A04238BF05F13A
:2027A000010C6346C1E900230B48D0E90089B8EB040169EB05048E1844EB0C07C0E9006704
:2027C00001F054FF18B1BDE8F84301F0D3BEBDE8F88300BF00020020F8010020E0210D4B17
:2027E0000D4A5A600D4A82F82310002207219A6019600B490B6843F001030B60094B1A60D0
:20280000042243F80C2C012243F8082C0F22DA62704700BF10E000E047E8010000ED00E0DD
:2028200008200D400C000340034BD3E90023100A40EA0360704700BF00020020034BD3E95E
:202840000023D00B40EA4340704700BFF8010020054B186053F81C2C1C3B42F001021A60DD
:202860001A68D207FCD470472800034010B5064C236823F001032360FFF786FF236843F096
:202880000103236010BD00BF10E000E0014B1868704700BF64360020064B18685A6808338B
:2028A0001B681B0443EA0223034A0343106843EA0060704740500D404C500D40014608B50B
:2028C000104A1368DB07FCD572B6FFF7E5FF0B1A062BD8BFC11D0C4B0A0E1A60C1F30742BD
:2028E00043F8042CC1F3072243F8082CCAB243F80C2C62B64FF40032044B1960044B1A6113
:2029000008BD00BF50500D404C500D406436002000E100E008B500F05FFF0022064B1A60EA
:202920004FF40032054BC3F89021C3F89020BDE8084002F063B800BF6436002000E100E0C7
:20294000064B1B681B075FBF054B186880F00800C0F3C00048BF0020704700BF18C00040F3
:2029600018D000402C23154A70B503FB00234FF6BF72DC680546236C626413F050020DD0AF
:202980000F4EA369DB0600D570BD56F825301BB12068C0B29847F4E72368F2E713F4D06F1E
:2029A000F2D04FF440732363FF236360E36AE262E362236B43F001032363E5E744D92000CA
:2029C000683600202DE9F04F0128064685B000F2B4802C2545435A4F7C1994F92090B9F116
:2029E000000FC0F2AA8094F922B0BBF1000FC0F2A4804FF00008534800F062FF524978595D
:202A00000A6894F921A002430A604A686068E56802434A608A68A06894F9233002438A6088
:202A200022690AEBC901C5F8C88F116094F823105FFA8BF0227D0193CDE9020100F030F92F
:202A4000DDE90201082200F021F901233F494FEA0B32019852F801C003FA00FB4BEA0C007A
:202A600050504FEA093959F8012003FA0AFA4AEA020249F801205022AA63AA6B94F92400E9
:202A800042F4D062AA6302226A634FF440722A63A26940456A62E269AA624FF07002EA629E
:202AA0000D4614DB94F92510294A41EAC0041460020354598B4023435351C9B24246C0B240
:202AC00000F0E4F8234A136843F4004313602C2303FB067393F92640002C1BDB93F8279039
:202AE0005FFA84F801224946404693F927A000F0D7F801232403625903FA0AF313436351AD
:202B000008224946404600F0C1F8124A136843F4804313602C2000FB0676F268136B43F0BB
:202B200001031363012296F82830590903F01F0302FA03F3084A42F8213005B0BDE8F08FF3
:202B400044D920004129200028200D4020940D4004410D4030D0004000E100E001289CBF01
:202B6000014B43F82010704768360020012808D82C22044B02FB0030C3689A699206FCD4C0
:202B80001960704744D920000022014B1A60704700500D40A022024B1A6050221A60704760
:202BA00000500D40014A024B9A6070470020200000ED00E038B5164D164C2B68012223F0A7
:202BC00040032B602368062123F040030320236000F05CF82B68012223F080032B602368D3
:202BE000072123F080032360032000F04FF80A4B0A4A0B491A600B4A134610680842FCD186
:202C00001A685101FCD41A685201FCD538BD00BF20C40D4000C40D4000200D400101020003
:202C20000000010104200D402DE9F0410546DFF83C8000F0D1FD0B4B2E03F75856F80840D2
:202C4000ED00EC4047EA0400C0B2A84001F064FFE4B2054BFFB2AC40F75046F80840BDE883
:202C6000F08100BF18940D401C940D4018970D40034B044A1A60044B803A1A60704700BF23
:202C80007036002080400D4074360020034B01EBC0011B6843F82120704700BF7036002061
:202CA000034B01EBC0011B6843F82120704700BF743600200E2870B506460BD1134B1C6875
:202CC00044F0020018601248056825F03F0343F0010303600F48036823F0FF031A43114306
:202CE00031430D4A016013681B06FCD50B4B0C4A1B68106803F0FC0343EA00230E2E18B24C
:202D000001BF034B1D60014B1C6070BD34000144F486084008700D4000700D400C700D40AD
:202D200010700D40024B1868B0FA80F04009704700B708404FF40042064B10B5064CC3F838
:202D40009021C3F89020206818B101F04BFE0023236010BD00E100E078360020064A1368FF
:202D600043F002031360536843F002035360936843F002039360704748200D4007B50C4860
:202D800000F09EFDFFF7EAFF0A4B1A6842F002021A6000220192019A0F2A06DD1A6822F042
:202DA00002021A6003B05DF804FB019A0132F1E7252D200054200D40064A136823F00203D2
:202DC0001360536823F002035360936823F002039360704748200D400B4B1A689207FCD447
:202DE0001B685B065FBFED22084B1A601A60084B1B6813B1EF22054B1A60064A012013780A
:202E000003F07F03137070474C860840388808402C860840FD470020044B186800F02200A2
:202E2000A0F1200358425841704700BF4C860840024B186800F04000704700BF4C8608408E
:202E4000204B1870002832D01F4A13681B03FCD51E4B1A6842F002021A601A6842F0010230
:202E60001A601A685007FCD51A6822F001021A601A685107FCD41A6842F002021A601A68BF
:202E800042F001021A601A685207FCD5104A136823F004031360D2F8A83123F00403C2F8FE
:202EA000A8314FF400520B4BC3F890207047084A136843F0040313604FF40052054B1A6152
:202EC000704700BFFC47002004200D40048808408C86084000E100E0084B93F90020002A90
:202EE00009DBED21064A11601160E32111601A7862F07F021A700120704700BFFD4700204F
:202F000038880840A0F10B01CBB20F2B10B5044613D80B4B1B6813F03F0302D0FFF75CFF1A
:202F20000123084A01EB81010B3111600BB1FFF7D3FF054B60B21C7010BD4FF0FF30FBE771
:202F4000488608403C860840F601002010B50C46002900F08680102800F28580DFE800F01E
:202F600009101B22243B44575C727683837B7D547F003E4B1B68003B18BF0123236024E023
:202F800005223B4B1B6803F07F030B3B93FBF2F30B33DBB2F2E7374B1A68043B1B6843EA3C
:202FA0000223EBE7344BF7E700230B60334B344A1B6803F001030B601268900644BF43F008
:202FC00002030B602F4B1B780BB900200BE00B6843F00403D2E700202B4B08601B78002B83
:202FE000F3D001230B6010BD284B29491A680023D2B201EBC3000079904202D851F8333024
:20300000BCE701330E2BF4D16FF01703B6E7214B1B685BB2493BB1E71F4B1B6899060FD141
:20302000FFF75AFF01231D490A68D207FCD51C4A1168493949B20BB1FFF7CEFE2160C4E795
:203040000023F0E7174B93F9003097E7164B1B7803F07F0392E70B2390E71A238EE7072377
:203060008CE70220BFE70120BDE700BF2C8608403C860840CC850840D48508400086084085
:2030800024860840FC470020F701002040860840D4D920005886084048860840648608407A
:2030A00060860840FE470020FB47002008B50B4B1B6899060FD1FFF70FFF012308490A681B
:2030C000D207FCD5074A1168C1F300110BB1FFF783FE084608BD0023F0E700BF48860840A2
:2030E000648608404C86084008B507285FD8DFE800F0040F1A2124404659012903D1FFF765
:20310000EBFE00203AE0002953D1FFF765FEF8E7A1F10B030F2B4CD8C8B2FFF7F3FE013077
:20312000EFD103202AE0244BCAB2C1F307211A605960E6E7214BCAB2F7E731F0070338D1E1
:203140001F4B11F0010F1A68C1F3800014BF42F0010222F001021A601A4B11F0020F1A68AE
:2031600014BF42F0200222F020021A60FFF768FEC7E731F001001CD1134B197008BD01F1C3
:2031800018031F2B15D80D23104A52F83300814205DC02EBC3031A790D4B1A60B1E7013B46
:2031A000F3D2AEE70B4BC9B249311960A9E70120E4E70220E2E700BFC8850840D085084099
:2031C0000086084024860840F7010020D4D92000408608405886084038B505460C46134A2F
:2031E00013689B07FCD4124B93F90030002B01DBFFF772FEEE220F4B691E1A601A60A21CB9
:2032000043F8102C2144022000F074FA0A49013C41EA0411022000F07FFA022000F086FA65
:20322000022000F09BFA002038BD00BF4C860840FD4700203888084002C001C0F8B5224BF0
:2032400093F90030002B18DBFFF726FB0446FFF743FEC4F1FF2404F57F04F634FFF71CFB71
:20326000C442FBD40126194B1B7843B9184C2368990609D502210846F8BD0026F3E7FFF7D7
:2032800015FF0028F2D1F5E7E9230427114D2B6023689A0703D4013F17F0FF070BD123687C
:2032A0009B070CD4EE2301212B602B60002EE2D0FFF792FDDFE70620FFF7CAFAE8E72168E0
:2032C00011F00201FBD1F1E7FD470020F70100204C860840388808400B280DD1082A0DD187
:2032E00061B1074B074A083111F8010D43F8040B9342F9D100207047012070470220704758
:20330000A8850840C885084070B52F4E0246306810F0400008D02D4D2868040605D5ED220C
:2033200000202B4B1A601A6070BDC0B20428F6D902388842F3DCC4B2032C1ED12B681370EC
:203340002B6853702B6893702968224B493949B219702B68204D18062B70E0D589B20420B0
:2033600002F0CEF82978032001F07F0102F0C8F81A4B1B78CBB12046D6E711190320013990
:2033800000F0C0F9164B611E032043EA011100F0C3F9032000F0CAF9032000F0DFF90320B2
:2033A00000F0E8F90028FAD1CEE733685A06E2D533681B0603D50B4801F014FBDBE7ED222A
:2033C000034B1A601A60D6E74C8608402888084038880840FE470020FB470020FC470020AA
:2033E00002C0010C58000020F8B52A4F3D7815F001054CD10124F822274B7F261C605C60F5
:203400009C60A3F59323A3F514731A600922C3F8902115221A670B22703303F59B23C3F839
:203420003C21402203F59E73A3F59B23A3F5F0731A601A6842F020021A60D52243F81C5CFF
:20344000DE62DA61154B1878FFF75CFD4FF48042134B02201E60134B1A6100F073F912491F
:20346000022000F04FF9032000F06CF90E49032000F040F90D4B1878FFF7E2FC0C48294658
:2034800001F098FA20463B7823433B70F8BD0020FCE700BFFD470020A8200D40F601002078
:2034A0009486084000E100E028880840FC4700205800002038B50388044653B340F2F732F3
:2034C000934233D11B4B18781A4638BB822923D1137873B901F0CAFF01F05AFF8021FFF7D9
:2034E00013FF002805DD80B201F036FF124BDB689847124B1A7852060BD500221A70104BAB
:203500001D68FFF769FCFFF76FFFAB0601D0FFF7E3FC40F2F733238001200AE01B78002B48
:20352000FAD0064B1B785806F6D5CFE700230380032038BDFC47002060DA2000FD4700201F
:20354000488608400B282DE9F0470C460FD1082A79D1002977D03D4B3D4A4C1E53F80419D6
:20356000934204F8011FF9D10020BDE8F0870C2867D1042A67D1002965D0364B36491A68A2
:20358000DFF8E48022F007021A600A68334F42F008020A60D8F800003A681D68DFF8CCE047
:2035A000DFF8CCC025F070051D60DEF80050DCF80060C0B2120240EA066092B202434FEA6F
:2035C0000549274809F47F09D0F800A042EA09061A685FFA8AF522F0070242F001021A60E2
:2035E0000A6842F008020A60D8F800203F68196821F0700141F010011960DEF80010DCF8A4
:2036000000C0D3B23A0243EA0C6392B213430A04016802F47F0243EA02085FFA81F9FFF705
:203620003BF9B6EB080165EB0905ED0307460023C8030C4A45EA514108F07CFA3F1A2760BE
:2036400092E7012091E702208FE700BFC4850840A485084010880840048808401888084063
:203660001C8808400048E80114880840248808402088084008B5054B1B7813B9044801F0BC
:20368000B1F90022034B1A6008BD00BFFC4700205800002034880840064B07481A68042AE3
:2036A0001FBF06490A7842F040020A7000221A6001F098B92C88084058000020FD470020B7
:2036C00010B5094C40220021204608F0BDFC0122064B1A604FF480425C60054B5A604FF43A
:2036E00000425A6010BD00BF0000002004F00F4000E100E003289EBF014B00011950704729
:203700000000002003289EBF024B03EB00104160704700BF0000002003289EBF024B03EBBC
:2037200000108160704700BF00000020032806D80123034A03FA00F01168084310607047B0
:2037400028F00F40032806D80123034A03FA00F0116808431060704720F00F40032806D848
:203760000123034A03FA00F0116808431060704714F00F4003289FBF044B03EB00108068EF
:2037800000F0070088BF0020704700BF000000204FF0FF32014B1A60704700BF04F50F4041
:2037A0000122014B1A6070474CF00F40084B19461A68D002FCD4074B1A6822F480321A60F2
:2037C0000A68D203FCD41A6842F400321A60704704200D4000200D4010B50A4C2368980794
:2037E0000ED0094B1A4619684901FCD413685B01FCD5FFF73BF8FFF7D9FF236800232360CC
:2038000010BD00BF58200D4004200D4038B5264B1C6814F03F0414D1244D55F8043B23B107
:20382000984770B10134052CF7D1214D2B7843B1FFF72CF80446FFF72FF8201A092800D990
:203840000CB930BF27E01B4B1A6822F400321A60194A11461068C002FCD41A6842F48032D5
:203860001A600B68DB03FCD5FFF716F8241A092C03D8BDE83840FFF799BF632C0F4C0BD921
:203880002B78022B08D1236001F062F830B1FFF78DFF0023236038BD0123F4E7FEF7F6FFCA
:2038A0000028F4D02368CCE7488608407C360020FF47002000200D4004200D4058200D40ED
:2038C000074A10B50023144652F8041B814202D011B944F8230010BD0133052BF4D1FAE757
:2038E0007C3600200022054B1A60054A136943F0040313610122034B1A70704758200D401A
:2039000000ED00E0FF4700204FF48032064B10B5064CC3F89021C3F89020206818B101F0FE
:2039200061F80023236010BD00E100E09036002070B5184B1A78431E52B101F52011164A0F
:20394000273191421AD011F8010903F8010FF8E7124A1278122AF0D1114A12784B2AECD15B
:203960004C0804F520120C4D2732AA4207D1002301F5201120442731A34205DB70BD12F850
:20398000016903F8016FF0E7CA1A1278013300F8012BF1E72B002800270028002A002800E9
:2039A00029002800024A136843F01003136070472000024014235843034B044A0344B3FBBA
:2039C000F0F3013B13607047FF23F4000C0002402DE9F0471646274A1F461368264C43F09B
:2039E0000103DDF820A013602368804643F00103236032208946FEF72BFF23681F4823F06B
:203A00000103236001244FEA0832135804FA09F123EA0103135033031D58BC4025EA0405F1
:203A20001D50174D5059014351515A59494614435C5140460022FFF729F939463046002209
:203A4000FFF724F90F4B49EAC8021A6047EAC6025A60494640460B22FFF722F93046394687
:203A60000C22FFF71DF9FFF79DFF5046BDE8F047FFF7A0BF38200D4044200D4000940D407C
:203A800020940D402C410D400FB407B504AA52F8041B0448019200F021F803B05DF804EBF6
:203AA00004B070476800002070B505460C460A4E102C07D874B122462B6868680649BDE8FA
:203AC00070401847102231462B686868984710B9103CEDE7204670BD85DB20002DE9F04F9B
:203AE0000746154600268FB00791079B1B78002B00F09C83079B1A781C460133002A00F0CE
:203B00008583252AF7D1079B9C4205D081E323784644002B00F08A836278631C002A00F00D
:203B200085830024184610F8012B19462B2A17D00BD8202A17D0232A18D0A2F1310CBCF166
:203B4000080F3FD84FF0000A18E02D2A04D0302AF3D144F0100401E044F001040346E1E73A
:203B600044F00604FAE744F00204F7E744F00804F4E70A2101FB0A2AAAF1300A194613F859
:203B8000012BA2F130000928F3D90B782E2B37D14A784B1CA2F13000092829D84FF00008F0
:203BA0001A781946A2F13000092803F1010319D90B786C2B6FD14B786C2B24D144F08004D5
:203BC000023123E02A2A0AD1D5F800A00146BAF1000F05F10405B8BF44F00104D5E74FF068
:203BE000000AD2E70A2101FB0828A8F13008D7E72A2A04D1D5F8008002310435D8E719461C
:203C00004FF0FF38D4E7013144F060040B78782B0CD8572B4BD8472B08D8402B00F290803B
:203C2000002B00F00383252B00F0D3804B1C079304F4E063B3F5A06F00F0C98200F2CC80E4
:203C4000B3F5407F00F07282B3F5806F00F03682B3F5807F7FF449AFB8F1000FACBF24F091
:203C600010044FF0010814F4005204F0E003069200F0EA80402B00F0E08000F2C280002BAB
:203C800000F0DE80202B00F0C78000220023CDE900230023CFE0682BB8D14B78682B02D11F
:203CA00044F020048CE7013144F04004AEE7583B202BBBD801A252F823F000BF853D2000E8
:203CC0002D3C20002D3C20002D3C20002D3C20002D3C20002D3C20002D3C20002D3C20009C
:203CE000AF3D20002D3C2000BB3D20006D3D2000973D20008B3D2000A33D20002D3C2000E8
:203D00006D3D20002D3C20002D3C20002D3C20002D3C2000CD3D2000793D2000C73D200091
:203D20002D3C20002D3C2000C13D20002D3C2000733D20002D3C20002D3C20007F3D20000C
:203D4000413B062B3FF672AF01A252F823F000BFB53D20002D3C20002D3C20002D3C2000F4
:203D60009D3D2000913D2000A93D200044F424545CE744F4106459E744F4885456E744F4ED
:203D8000C85453E744F4B24450E744F400744DE744F484444AE744F4024447E744F44244ED
:203DA00044E744F4813441E744F4A1343EE744F4C1343BE744F4E13438E744F4A06435E77E
:203DC00044F4806432E744F440742FE744F4E0642CE744F4C06429E7B3F5C06F07D0B3F55B
:203DE000E06F7FF482AE2B6804351E607DE601223B68A94978689847002840F01582013687
:203E000073E6602B1CD0802B7FF43FAF073525F00705F5E8022303E095F90020D3170435B3
:203E2000002A73F10001BFF632AF524263EB4303CDE900230123039317E0B5F90020EDE709
:203E40002A680435D317EBE7402B00F0B08000F29A80002B00F0AD80202B00F0A180069BFF
:203E6000002203930023CDE9002304F4C053B3F5805F00F0D580B3F5C05F00F0D680B3F502
:203E8000006F00F0B78000230DF1360B0493049B41F20802984588BFA8EB030841F60803B3
:203EA00004EA030198BF4FF0000891421A4604D1B8F1010F38BF4FF00108049B914203EB12
:203EC000080040F0CC80DDE90023134300F0C780724914F4804F724B4FF0020918BF0B4627
:203EE000069A72B1039A002A40F0BD8004F00602022A00F0BC80062A6A4A04BF4FF0010987
:203F0000134609EB0002924594BF4FF0000AAAEB020A14F00102009204D1E10640F1AB808D
:203F2000D0449246B9F1000F07D04A4619463C687868A047002840F077814446049B1E44D0
:203F4000102C5949D7E9003000F29F802CB1224655499847002840F0678159463B68049AA0
:203F600078684E449847002840F05E81009B4644002B00F0D48051463846FFF795FD002860
:203F800000F0CD8050E1602B13D0802B7FF467AF073525F00705F5E80223CDE9002304E0F5
:203FA0002A780023CDE900230435069B43E72A88F7E72B68002219460435CDE90012F4E7DF
:203FC000DDE904010A22002307F0B4FDDDE9040130320BF8012D00230A2207F0ABFDCDE91D
:203FE0000401DDE904231343EAD10DF13603A3EB0B034BE7DDE900230DF1360BCDE90423B4
:20400000EFE702F0070130310BF8011DD10841EA4371D8080A46034652EA0301F1D1E4E750
:204020000DF1360BDDE90023F6E7204B14F4804F0DF1360B1E4908BF1946DDE9002352EA48
:204040000300D2D002F00F00085C4FEA131C0BF8010D100940EA037002466346EFE74FF021
:2040600000094B463CE74FF00109124B49E74FF00109114B45E7514638460393FFF714FD2A
:20408000039B00283FF44EAFCEE010229847002840F0CA80103C53E783DB200072DB200058
:2040A00075DB20007ADB200095DB200061DB200050DB200078DB20000ADB2000D5F800900F
:2040C0000435B9F1000F2CD04B469B469BF800200133002AF9D1ABEB090BB8F1000F02DB66
:2040E000C34528BFC346DA4594BF4FF0000AAAEB0B0A14F0010406D151463846FFF7D4FCA8
:20410000002840F091805A4649463B6878689847002840F089805E44002C7FF42CAF56448E
:20412000E3E44FF0060BDFF81491D6E7414B424A14F4804F08BF9C460DF1330318BF9446B2
:2041400000211A462868043550EA010E30D1D21A08BF30224FF0780104BF03F8012C03F12F
:20416000FF3303F8011C4FF0300108BF012203F8021C232102F10309CA4594BF4FF0000A94
:20418000AAEB090A14F00104A3F1030803F8031C05D151463846FFF787FC002844D14A4684
:2041A00041463B687868984700283DD14E44B3E700F00F0E1CF80EE04FEA111803F801ED5A
:2041C0004FEA101E4EEA017E70464146BCE7BAF1010F38BF4FF0010A2B6814F0010405F153
:2041E00004058DF820300AF1FF3805D141463846FFF75AFCC0B9464401223B68786808A92E
:20420000984788B9002C8AD04146B5E6079B9C420CD0079B0799A4EB030842463B68786893
:20422000984700283FF473AC4FF0FF3630460FB0BDE8F08F61DB200050DB20007CDB20003A
:2042400038B5464C07F080FFFEF7C8FA08F020F800F024FB0021424800F0ACFB00F0DEF88B
:20426000FEF792FC07F0F6FF00F0DCFBFEF736F92368022B21DD3B4A3B493C48FFF704FCAB
:204280003B48FFF701FC2368022B16DD354A36493648FFF7F9FB374B37481968FFF7F4FB30
:2042A0002368022B09DD30492E4A3048FFF7ECFB324B33481968FFF7E7FB01F027F823682E
:2042C000022B13DD274A28492848FFF7DDFB2D48FFF7DAFB2368022B08DD2B4800F042FA25
:2042E0002368022B02DD2948FFF7CEFB08222649274807F0C9FD0021264800F05BFB4FF01E
:20430000FF3003F0BDF823680546022B15DD154A15491648FFF7B8FB1F48FFF7B5FB236875
:20432000022B0ADD05B10235284600F0C1F92368022B02DD1548FFF7A7FBFEF7FFF817488D
:2043400007F07EFF00F0C2FA0446FEF723FC14F0FF0FF7D107F002FFF4E700BF90000020C3
:2043600080000020A5DB2000F8DA2000FDDA2000AADB200078DA2000BFDB200060DA2000E9
:20438000C9DB2000D3DB2000EC570020B8DD20006C5000201C010020E7DB2000D8DA2000A6
:2043A000F8B5038805461646CBB14A2B2BD188291FD1174807F0A1FF0446C4B1231D9E42BB
:2043C0001FD12146124807F0A2FF124E626937683260A2690AB1E0699047376007E00C4880
:2043E00007F08BFF044634B901220B4B1A704A232B8001200AE0A168201D07F02CFF2468EB
:20440000F1E72468D9E7002303800320F8BD00BF94360020203800200048002010B5002488
:20442000054B06481C7007F065FF2146BDE81040034800F0BFBA00BF0048002094360020D6
:204440007000002070B50446E3610B4B049D1B78C4E905526BB1094D094B2E68201D2B6067
:2044600007F0F9FE2E602146BDE87040054807F061BFA160F7E700BF004800202038002022
:20448000700000209436002013B5034C24680094FFF7D8FF02B010BD2038002070B5094B2E
:2044A00004461B783BB1084D084B2E6804302B6007F0DAFE2E602146BDE87040044807F0DA
:2044C00039BF00BF0048002020380020700000209436002010B5084B04461B7843B10430AE
:2044E00000F0CCF82146BDE81040044807F00FBFC0E90333F6E700BF0048002094360020CE
:2045000010B50A4B04461B7823B1BDE81040043007F0B3BE064807F0F0FE08B9012010BD5D
:20452000A04201D00068F8E70020F8E7004800209436002010B50D4C236813B90C4A1360F2
:2045400010BDFEF771F92268D2E900310B441B1A92681AB91844064B1860F1E7D2E900149C
:204560002144091A8B4228BF0B46F1E79C36002098360020014800F035BA00BF800000206F
:204580002DE9F8430388054653B1592B48D1872921D1002024490B6863B918B10B6001E080
:2045A000214A1360592301202B80BDE8F88301203346F1E7D3E902649442F8D000B10B6067
:2045C00019460B4689680029ECD0C8689042F8D189689960F4E78229E4D1134F4FF00009BB
:2045E000B84600263C68002CDCD0204607F074FE98B122468821E06800F0B4F958B9A368F1
:20460000E0602EB1B360C4F80890FFF793FFE8E7C8F80030F7E7FFF7ADFF2646A468E2E70C
:20462000002303800320C0E79C36002010B50446FFF7A0FFE3680B4A0BB1136833B90A4B5C
:204640001B68E36013681460A36004E0A34206D1054A1268DA60BDE81040FFF76BBF9B68E7
:20466000ECE700BF9C36002020380020024B1868003818BF012070479C36002010B50B4A7E
:2046800004461368834208D183681360FFF752FF0023C4E9023310BD1346002BF8D09A68F2
:2046A000A242F9D1A2689A60F0E700BF9C3600202DE9F347054628B9254802B0BDE8F04749
:2046C000FFF7E2B90488BCB94388B3B984889CB9C38893B9048934BB4FF6FF7342899A423F
:2046E0000BD1C37B0093837B427B017B1948FFF7CBF902B0BDE8F08700242646DFF85880AE
:20470000DFF85890DFF858A06B1CA95D9F5D07EB0127BFB277B9002C0EDB06D0013402366F
:20472000102EF1D1E5E71C46E7E75046FFF7ACF90124F4E7002C08DC16B14846FFF7A4F954
:2047400039464046FFF7A0F9E9E74FF0FF34F7E725DC200034DC20004ADC200048DC2000CA
:2047600047DC2000F8B5054688B90B48BDE8F840FFF78AB9E30702D43846FFF785F9295D1C
:2047800030460134FFF780F9082CF3D1F8BD0024024E034FF3E700BF4DDC20005EDC200050
:2047A0005CDC200038B5836804460D469BB10A4804600220A07304F10C00984702380128B2
:2047C00001D9832D05D121462046BDE8384000F005B80123A37338BD203800202DE9F843EA
:2047E0001C4F04463D6888462B46A34204D00BB9BDE8F8831B68F8E7002CF9D0164EA37BAA
:20480000D6F8009063B10023A3738DB9A3683BB1444505D02A468321346004F10C009847CA
:204820003B68A3420ED123683B60C6F80090DFE7A54204D022468721284607F023FD2D68F2
:20484000E3E71346002BF0D01A68A242F9D122681A60EAE72438002020380020002238B542
:204860000125084B1A70084B1C6804B938BDE37B2BB1002282212046E581FFF793FF2468CD
:20488000F3E700BF0448002024380020024B1878421C1A70704700BF024800208A22064BF5
:2048A0001A700023054A1370054A1370054A1360054A1360704700BF0248002001480020DA
:2048C0000348002024380020203800202DE9F0411A4D2B780BB1FFF7C1FF194C267896B16C
:2048E0000C221849184F0B78013E5A430133B81803F01F03BF5C0B702670D0E9018090B99B
:20490000124B1E6826B92B7820781844BDE8F0812B780BB1FFF7A2FF30464246394607F0BE
:20492000B1FC3668EEE7812F08BF01234246394608BF837307F0A6FCE5E700BF0448002068
:204940000348002001480020A036002024380020024A034B10781B781844704703480020DE
:2049600004480020F0B50B4E3378202B0FD00C25094C0A4F24781C4404F01F046C433D1901
:20498000C5E901200020013339553370F0BD0120FCE700BF0348002001480020A036002089
:2049A00038B5034C256807F06DFC256038BD00BF2038002010B40A4C0A4621680B46834214
:2049C0000CD04BB950B1016001212060817310BC81218381FFF7E4BF1B68F0E710BC704717
:2049E0002438002038B1837B013B012B9FBF0123014AC373137070470448002010B5084C2A
:204A0000206858B100232360D0E901319847236823B1BDE810401868FDF750BF10BD00BF32
:204A200028380020CD2182B0054B01AA934204D30021044802B0FFF7BDBF03F8011BF5E7AB
:204A4000ED6300209400002038B5FEF7A3F80C4C0C4D2378CD2B0DD0AC4208D3FEF79AF844
:204A6000AC4236BF2C1B4FF6FF70A0B238BD0134EFE701342378CD2BF0D1AC42F9D3EDE7EF
:204A8000ED630020F06B002070B50388044603B3902B27D1154807F0F0FB08B3FFF7D4FF05
:204AA000134E144B0546F61AB3B298420DD9124B1B68002B09DD114A11491248FEF7E4FFDE
:204AC00029461148B2B2FEF7DFFF084807F0CCFB04E04FF4A061054807F0BDFB902323804F
:204AE000012002E000230380032070BD2C380020F06B0020ED6300209000002063DC20003F
:204B000069DC2000FDDA20006DDC20000146014807F010BC3C38002038B50546064807F06C
:204B2000ECFB044604B938BDA068284002D0636803B198472468F5E73C380020014807F0B6
:204B4000D9BB00BF3C3800200021F0B50125FF260F46104C40FA01F3DB0711D5227894F890
:204B600001C0D3081B0303F1804302F0070203F5592305FA02F2BCF1000F07D043F8227002
:204B80000131042904F10204E4D1F0BD43F82260F6E700BF1CDB2000F0B500210126FF27D6
:204BA0000E4C40FA01F3DB070ED522786578D3081B0303F1804302F0070203F5592306FA12
:204BC00002F23DB143F822700131042904F10204E7D1F0BD43F82250F6E700BF1CDB200007
:204BE000F0B4002101260D4F0D4D0E4C17F811300131DA081203505903F0070306FA03F3A4
:204C000020EA030050511059042943EA00031351ECD1F0BC0F20FFF7BFBF00BF1CDB2000DA
:204C200020940D4000940D4070B5058804466C2D09D07E2D2FD0002D33D1FFF727FE1B4BC8
:204C400018701B4B1D601B4E194D08E00A282B680ED07E2B03DC5A1C2A60174AD05430460C
:204C600007F0F6FB431CF1D16C23238001201BE05A1C2A600025104A2846D5540B4B1978E0
:204C8000FFF770FE0D4B2A4685211868FFF76AFE18B97E23E9E78529E8D10022044B1A60D0
:204CA000D1E700230380032070BD00BF3258002040380020443800200548002020380020C4
:204CC0000D28014610B516D00C4C237853B90C4807F0ABFB08B9012323700A48FFF782FE7D
:204CE000012010BD0A28F8D1054807F09EFB0028F3D00023F0E70020F3E700BF8548002063
:204D000044380020A400002008B505490548802207F084FBBDE8084000210348FFF74ABE6C
:204D20008648002044380020A4000020064A136843F004031360054B186804331B6840EAF9
:204D4000032080B2704700BF00700D4014700D4010B5174A136823F00C0313600122154B41
:204D60001A601A68012AFCD10822134B13491A60E32203F505731A601A460B68DB07FCD56C
:204D80000F4C102100232068013900F0010043EA00034FEA43039BB2F5D1002BF1D00949B1
:204DA000180A03F0FE0308600B60EF23136010BD00700D40A8200D402486084064860840C2
:204DC0009C86084014700D402DE9F04104880546772C20D07E2C3DD0002C4ED1FFF756FD9C
:204DE000284E294B294FDFF8B08018703460336857F823202AB9264A137077232B800120C5
:204E00003EE008F803409368002180209847336801333360EBE700231E4A1360194A13608E
:204E2000184B1B4A1B6812789A4204DC194B1B68002BF0D1E1E7184AD256002A19DA134A42
:204E4000002052F82320104B1978FFF78BFD28B97E23D3E70C4B1B788B42D0D1094B0E49FC
:204E60001A688B5C03F07F038B540A4A136801331360044A13680133D1E700230380032081
:204E8000BDE8F08150380020335800204C000020064900204C3800202F58002010B40A4B6A
:204EA0000A4A197800238B4203DA52F8044BA04208D107490748CA5C62F07F02CA5410BC6A
:204EC000FFF790BD0133EEE7064900204C0000202F580020B400002010B50948FFF7DEFA4C
:204EE000084800F035F90146064C01B910BD0B7A20465B080B7207F029FB0146F5E700BF5C
:204F0000D04E0020C40000200146014807F039BBC4000020F8B531F0020307460E46154641
:204F200031D10146184807F02CFB044650B9034609223946144800F027F9044618B307F0EC
:204F4000A9FAA080FDF770FC237A20602B44102BA8BF1023022E18BFED01237220460CBF12
:204F60004FF40065ADB207F083FA002814BF0A2219225543A388C2F1640101FB035564239E
:204F8000B5FBF3F5A580F8BDC400002038B50546042000F0BDFA294604B20E4807F0F1FA5B
:204FA000034658B9294609220A4800F0EDF8014618B1C48007F06EFA888038BDB0F9062057
:204FC0000A2044435A20642100FB024292FBF1F2DA80F2E7C400002038B5084800F0B8F87E
:204FE0000446064D04B938BD2146284600F048F92146284607F0AAFA0446F3E7C4000020E4
:2050000010B50021054800F08FF8BDE8104000234FF4E131024A0348FFF736BAC400002018
:20502000D94E2000D04E0020431C1FBF0C22034B9B6802FB003008BF00207047D400002070
:2050400030B1054B9B68C01A044B8010584370474FF0FF30704700BFD4000020ABAAAAAA90
:2050600038B50D4D002818BF05460C4807F045F9044610B94FF0FF3038BD2846211D07F0FD
:205080002BFA20B12046BDE83840FFF7D9BF204607F06BF9ECE700BFE0DA2000343900204F
:2050A000024608B550B107F029FA431C06D0044B1268185C104100F0010008BD0020FCE754
:2050C000274900202DE9F04104460026134F57F8042BA2B1D2F80880B8F1000F0FD0204607
:2050E000FFF7AEFF0146104607F0FEF9014605461046FFF7D5FF012801D12846C047013629
:20510000082EE4D12046FFF79BFF0022044B21461A54BDE8F041034807F0F9B81439002032
:20512000274900203439002010B5074A1368072B9FBF5C1C1460054A03609BBF816042F81E
:2051400023000020012010BDF83900201439002038B505460B4807F0D0F8FFF771FF014669
:20516000284607F0C1F9044601462846FFF798FF28B921462846BDE8384007F0E7B92046B4
:2051800038BD00BF343900202DE9F047374E0746002918BF0E46304699469046FFF760FFDB
:2051A000431C054627D1324807F0F2F80446B0B94946404604F00EFD002839D0FFF750FFB5
:2051C000451C014627D0FFF72FFF054618B3294B5A5C02B15C542846FFF774FF2C462146B9
:2051E000254807F0A7F82046FFF72AFF31460546201D07F06EF92946384607F075F904462E
:205200007A68002106F020FF0123224639461B4807F07FF90CE0184807F06FF80025024682
:20522000A846DFF85090DFF854A022B9002DD2D12046BDE8F0871046FFF702FF19F8003043
:205240004BB91AF8001059B90DB1434503DA1546002BC0D09846104607F087F80246E4E720
:20526000C80748BF01334910EDE700BFE0DA2000D4000020074900203439002027490020DD
:2052800070B50A4604460D4600230146054807F040F9064600232A462146034807F039F95B
:2052A000304670BD27490020074900200A4601230146014807F02DB9074900200A46002387
:2052C0000146014807F025B90749002070B505460D480E4607F011F8044600B970BD012D82
:2052E0000AD1A3681BB9204607F03FF8F4E7304698470028F7D0F1E7002DF4D16368002B81
:20530000F1D09847F5E700BFFC390020054B10B51B689847044B5B689847BDE81040034B52
:205320005B6818479CD9200060DA200078DA200010B507490B88834208DB064C80B222886C
:205340000244181A08800120228010BD0020FCE73441002036410020014B1880704700BF34
:205360003441002000487047003A0020014B1888704700BF34410020034A044B10781B7891
:205380001844C0B2704700BF374900203641002008B5FFF7F1FF014B184408BD003A002028
:2053A00070B50D4E0D4D32782B8804461344802B0FDC0B4906F068FD30780444FFF7E8FF03
:2053C0002A880146204606F05FFD30782B88184470BD0020FCE700BF374900203441002041
:2053E000003A002008B5FFF7C7FF024B1B88184480B208BD3441002010B50146FFF7F2FF0F
:205400004318802B12DC431E094A1BB21A44481C002B05DA074B187801440120197010BDAD
:2054200012F80149013B14541BB2F1E70020F6E7003A00203749002038B5094D094C1A2204
:205440000021094806F000FE2946204607F041F8294604F10800BDE8384007F03AB800BFB0
:20546000E0DA2000F4570020045800200023044A1380044A1380044A1370FFF7DDBF00BF64
:2054800036410020344100203749002038B50C460546FFF7EBFF802C28BF802429462246C8
:2054A000034806F0F1FC034B20461C8038BD00BF003A00203441002010B50C461A2205492A
:2054C00006F0E2FC2046BDE810401022024906F0DBBC00BF04580020F457002010B50C46D6
:2054E0001A220146044806F0CFFC2146BDE810401022024806F0C8BC04580020F4570020E3
:20550000024B23F810100120704700BF04580020014B33F8100070470458002008B5044B2A
:205520000D3803EBC00006F0D4FF012008BD00BFF4570020024B0D3803EBC000704700BFE9
:20554000F45700200149024806F0C6BFE0DA2000FC57002008B5044806F00AFFBDE808408F
:20556000024806F005BF00BFEC000020E0000020014806F045BF00BFE000002038B50E4817
:2055800006F006FF054650B10C4806F001FF0446286030B92946084806F00EFF2546284624
:2055A00038BDFFF7FDFE04F19C01A4F8800004F18200FFF781FFF2E7E0000020EC00002085
:2055C00010B501460446074806F00CFF48B12168054806F0F1FE2146BDE81040014806F0D6
:2055E000EBBE10BDE0000020EC00002010B501460446094806F0F6FE68B12468B4F88010B7
:205600002046FFF743FF04F19C0104F18200BDE81040FFF763BF10BDE0000020F8B5FDF768
:2056200003F9114D074600242E460D20FFF782FF294606F051FF78B10720FFF769FF06EB33
:205640000414237B83420CD1A068381AB0F5206F8CBF00200120F8BD0134102C05F11005A7
:20566000E3D10020F7E700BFA03A002070B5164D00242E460D20FFF75DFF294606F02CFF90
:20568000013418B9102C05F11005F3D1651E06EB0411A1F110047DB90720FFF739FF30739C
:2056A000FDF7C2F8B0600D20FFF744FFBDE870400146054806F00DBF20391022204606F034
:2056C000E3FB013D2146E4E7A03A0020014B1888704700BFF40100202DE9F043012906464C
:2056E0008846144687B003DC002007B0BDE8F08303A907F0D5F80A2203A904F1100006F03A
:20570000C3FB9DF81130002B47D0B71C02AA01A903A806F08BFF9DF81350002D4ED0029B7F
:205720002BB17A7817F8023B03EB02239BB2022DA38336D13D462046324906F0CAFE7B787E
:20574000237015F8023B63709DF81590B9F1000F4ED0019B002B38D02F466A7817F8023B16
:2057600003EB0223029A9BB2E38302B9A383B9F1020F2ED13D46234904F1080006F0A9FEA3
:205780007B78237215F8023B6372A81BA8EB00038045C4E90E53A7DBA7E7B378F71CA376CF
:2057A000B4E7032D0FD107F108052B46621E13F8011D9F4202F8011FF9D1C5E720461149EE
:2057C00006F087FEA5833D46BEE7A38B2F46E383CDE7B9F1030F13D107F108052B4604F136
:2057E000080213F8011DBB4202F8011BF9D1CCE7044904F1080006F06CFEA4F81E90C4E747
:205800003D46C2E7E0DA200030B591B00546FFF75DFF4FF6FF73984204D14FF0FF34204681
:2058200011B030BD40220021684606F00DFC274B1A782AB901221A70FFF778FA244B187097
:205840007DB10720FFF764FE58B9214C23780BB90123237007202178FFF752FE2378013332
:205860002370FFF76FFE6A46C1B21A4807F090F8FFF768FE08B34FF6FF73ADF800300D205E
:20588000FFF758FE014602A806F023FEFFF780FD0E90FFF76BFD0F90684606F073FF044646
:2058A000002DBCD0FFF7A8FD0028B6D0FFF75AFD0146684606F0AEFFB1E70E20FFF73AFE0D
:2058C0000146684606F005FED9E700BF48490020494900201155200070B590F82D4006460C
:2058E000012C94BFE51C05250124FFF71FFAAC40013CB0FBF4F1334601FB1401034A06F142
:205900000C00BDE87040FEF7BFBD00BF8D5920002DE9F0470D4614468B680646D3E9007883
:20592000506B92F82C9006F0F2FC6868FFF748FEA968124806F040FD2946114806F03CFDE1
:20594000606B06F0DAFC60B100232046A385FFF7C3FF4B46324641463846BDE8F04706F056
:205960005ABE04F10C00FEF7B5FD2146054806F0CEFC2146044806F01FFDEAE7F800002045
:2059800010010020003C0020040100202DE9F743044600283DD0406B06F0AFFC002838D00A
:2059A0004068FFF723FE6D490D20FFF7B7FD01210820FFF7A5FD6A4B5B68984700286ADBF5
:2059C000FFF7D0FC674D87786E68FFF7CBFC8046FFF708FD01464046B047FFF7B3FDD5F8C7
:2059E00018808146C04708B101260CE0B9F1000F12D0AE68FFF7F6FCB047064688B1022836
:205A000014BF04260126606B06F077FC0546002843D103B0BDE8F083EB6998470028E3D1CD
:205A2000E7E7B9F1000FEED1FCF736FF0646FDF7B1F8C6F1FF2606F57F06F336FCF72CFF6C
:205A4000C642FBD4C047D5F81C80D8B1FCF724FF0646FDF79FF8C6F1FF2606F57F06EB360C
:205A6000FCF71AFFC642FBD4C04790B103212B6901A898470328B7D19DF80630BB42B3D1BC
:205A80000026C0E7C0470028E0D16B6998470028DCD00226B7E70526B5E70721686806F057
:205AA000B4FD07460720FFF733FD874245D0284606F05BFCAAE7032322462946002084F8D8
:205AC0002D3094F82C30013384F82C30FFF720FF9FE7002384F82D3094F82C300133DBB235
:205AE00084F82C30127A9A421CD8224629460220ECE794F82D300133DBB2052B84F82D30F3
:205B000007D9002194F82C3084F82D10013384F82C3094F82C10137A994203D322462946FA
:205B20000120D3E72046FFF7D7FE686806F067FD6FE7224629463046C8E7AA68002A3FF46E
:205B400068AF032EF5D801A353F826F0B75A2000F35A2000D35A2000135A2000EC57002050
:205B600054DA20009CD920002DE9F04106460E200F46FFF7DFFC484B05461A78474C22B97D
:205B800001221A70FFF7D2F8207023780BB901232370217807204B1C2370FFF7B1FC012173
:205BA0000C20FFF7ADFC3E4806F0A7FB0446002849D13C4806F0ECFB0446002861D02946FD
:205BC000201D06F086FC4FF44073A385002304F130006063236306F08DFB2146304806F00E
:205BE000A9FB606B06F0BAFB07284ADC2E4806F0CFFB0546002838D02C4806F0C9FBA8604F
:205C000078B3FFF7BBFC686038B30620D5F80880FFF77EFC10F0FF0008BF0823C8E9006705
:205C200014BF88F8080088F808302946606B06F081FB606B06F061FB85422AD12046BDE8BB
:205C4000F041FFF749BE2946201D06F045FC0028C7D1204606F089FBA8E7A968134806F0A2
:205C6000ABFB2946104806F0A7FB606B06F076FB38B921460A4806F04AFB2146094806F05A
:205C80009BFB39463046BDE8F0410123042206F0C2BCBDE8F08100BF4A4900205D49002097
:205CA000003C00200401002010010020F800002008B5064806F05CFB054806F059FB0548DE
:205CC00006F056FBBDE80840FFF744BC10010020F800002004010020014B1B6A184700BF3D
:205CE0009CD92000014B5B6A184700BF9CD9200007B5FFF73BFB03281BD00F4B9B68984711
:205D0000002816DB0E20FFF715FC0C4906F0E4FB58B1FFF783FC60B9FFF7A8FC084B9B6884
:205D2000019303B05DF804EB1847FFF70BFC0028EFD103B05DF804FB54DA2000EC570020DC
:205D400078DA2000B8230B49024603FB0013002030B5014604465882074B9D7825B11D7807
:205D6000954204BF9C70013001310C2903F17103F3D130BDDC3C0020694900200122044B50
:205D8000FD211A70002299705A70DA70FFF7E2BB5E49002010B50E4C0220A179FFF7B0FBC6
:205DA000A379112B09D1218D638D994228BF1946BDE810400120FFF7A3BB062BF3D03A2B2F
:205DC00003D1218D49BA89B2F2E70021F0E700BF7450002070B513780446087A83F002039B
:205DE00098421FD1487A537898421BD1887A9378984217D1C87AD378984213D1087B13795D
:205E000098420FD1487B537998420BD1887B9379984207D1C87BD379984203D10320A04082
:205E2000C0B270BD0E4D0B892E4628687BB94B89B3F57F4F0BD18B89FE2B08D102220E31FD
:205E400006F022F82B68022002332B60E7E70822114406F019F83368012008333360DEE71A
:205E60004C3E002010B5074C01462378012B04D10822A01C05F0DAFF08B1002010BD2046BD
:205E8000FCE700BF5E49002008B501460E20FFF745FB044B00219B6803489847BDE80840A7
:205EA000FCF778BE60DA2000B565200000232DE9F04FB74DB74E87B02B7033700446FFF7EF
:205EC000D5FAFFF765FAB44AB44B12689846186000950AB1FFF75EFF002C40F0EC80B0496D
:205EE00004A806F0F6FA042002F080FB01460620FFF706FB3378D8F800200233A94FD1186A
:205F000039600021A848D154FFF7ACFF002800F0D48080253B6801333B60A44C6278237829
:205F20004FEA121949EA03195FFA89F122F00F00C9F3850903F00F0349EA81190343100741
:205F40004FFA89F15FFA89F940F0BF806088002840F0BB80002B00F0D4804FF0700B3B68ED
:205F600003F8019B3B60A379112B07D033B13C2B04D0A3F12B02012A00F2C6804BF0040B33
:205F8000E379402B00F0C580FF2B00F0C580012B40F0C5804BF0010B628923891343A289A6
:205FA0001343E2891343228A1343628A1343A28A1343E28A13439BB2002B40F0B58045F030
:205FC0004005237EFF2B40F03281627E638B022A386845F0080940F0F980002B40F01E814B
:205FE000E18BA38B0B43218C0B43618C0B43A18C0B439BB2002B40F0EA8094F82630002BE9
:2060000040F0E58094F8273045F00B0500F8013B38602823009ADFF8B09113703B68614F24
:206020000193002302933B68B9F1000F10D099F80020112A00F08081002A00F072813C2A88
:2060400000F029812B2A00F06B812C2A00F07081D8F8000032780DF1100900F802B00244BD
:2060600055701B1A49460E203370FFF757FA504B504F1B689847031EB8BF1523009AB7F8CA
:2060800000C011783078C3F17D05ACEB0102A5EB000E724540F37182C3F178039CFBF3FA11
:2060A0000193FFF765FA01388245C0F2C981002007B0BDE8F08F214612E73F48FFF7D2FE53
:2060C000054600287FF425AF27E7386873B921F03F010A4300F8012B3849022205F0D4FEFE
:2060E0003B684FF0680B03333B603CE704222F4905F0CAFE3B684FF0600B03F8049B3B607A
:2061000031E74FF0780B2EE73A6802F8013B3A6036E74BF0020B3FE74BF0030B3CE73A6885
:2061200002F8013B3A6037E72348FFF79BFE244B186088B13378D8F8001002334078CA5CB9
:2061400042EA0012CA5404201E4A1B49FFF742FE60F03F05EDB234E748F2FE0322899A42AD
:206160000DD1A28B638B1343E28B13439BB233B90420144A1049FFF72DFE0543EAE710228D
:206180000D49386805F080FE3B6810333B6018E7B64E0020B54E0020D43C00205C3E0020E5
:2061A000E0DA20004C3E00208C5000207450002054DA2000645000207C5000207650002087
:2061C000D83C00206C5000207A50002033BBE18BA38B0B43218C0B43618C9BB219430ED17F
:2061E00094F8243063B900F8012B8F49032205F04BFE3B6845F00A0504333B6009E76BB977
:2062000094F8223053B900F8012B8849052205F03BFE3B6845F009050633EEE71022844957
:2062200005F032FE3B684D4610333B60F1E68048FFF718FE7F4A0346106088B13278D8F845
:2062400000000232815C5B780B4383547849002004AAFFF7BFFD0543EDB245F00405D8E611
:2062600048F2FE03228B9A420DD1A28B638B1343E28B13439BB233B96D4904AAFFF7AAFD0E
:206280000543EDB2C5E610226949386805F0FCFD3B681033B1E7029A02F12809664A914437
:2062A0000322039299F801A099F800204FEACA0A112A0AF1080A08D03AB13C2A05D02B3A89
:2062C000012A82BF5D4A013313605C4852464946006805F0D9FD59485FFA8AF30268991E6E
:2062E000517002995244514402910099026009780B4400990B7099F80030112B1AD0CBB142
:206300003C2B17D02B3B012B8CBF00230123039943EA4103019963F01F030B70019282E679
:2063200001220392029A02F12809434A9144B9E70222F6E70123EAE74FF2B00A029A581CE2
:2063400002F1280C3C4A38603CF802100CEB0209B9F802E00A0A42EA012292B24FEA1E21FE
:2063600041EA0E2122F00F0ED645039289B21FFA8EF226D121F00F0E964522D1F32201996E
:2063800002330A702C4A3CF80220110AB9F80220120A02EB011202F5AA6203F8012C3B60B2
:2063A000022209F10601386805F06EFD3B68009A02333B60009B4FF000091B780833137077
:2063C00031E601F47F41B1F5704F0DD1F123019A49461370022205F057FDB9F802203B680A
:2063E000120A9A700333DAE7039A02F47F42B2F5704F0FD1F22201990A700F4A3CF802200F
:20640000120A5A700222981809EB020105F03CFD3B68E7E7F023019A49461370042205F051
:2064200033FD3B680433BAE799500020975000208C500020D83C0020745000204C3E0020E3
:206440000023D8F80010DFF864A13278081DCAF8003005F08FFD3B88D8F800001B0A63F010
:206460003F0303703B884E4A43701388DFF840B1591C1180C3701A0A337800990433DBB291
:2064800009788270EA1A474D22F00702594418442A60337005F0F8FC2B683078184480B2FE
:2064A000FEF75AFFFFF76AF8CDF808B0044600283FF4FDAD4846FFF7E7FC2046FFF796F819
:2064C0002046FFF77DF8DAF80030012B3FF4EFAD043B012B7FF6EBAD009B2A681B78D8F8E6
:2064E00000101344052232703A881FFA83FB120A62F01F02019B0A7023F007043A882C6002
:20650000294C4A703A88934501D30120D0E520684FEADB0101712968A2EB0B028A4296F874
:2065200000C0029BB8BF2A6003EB0B0160442A6805F0AAFC2A683078104480B2FEF70CFF72
:20654000FFF71CF8804600283FF4B1AD4846FFF79BFC4046FFF74AF84046FFF731F82A68A2
:206560000BEB0203DAF800201FFA83FB012A3FF49EAD043A012AC5D899E5D8F80030214405
:20658000184405F081FC3B8830781844009B1B78C01A80B2FEF7E0FE4846FFF775FCB4E7C9
:2065A00098460020583E00205C3E0020543E00207450002070B5124B0C461B68154613B161
:2065C00008469B6898470F4B0E201C60FEF7B2FF0D49064605F080FF80B92A462146304645
:2065E000FEF798FC094B214630462A465B6C984729462046BDE8704006F022BA70BD00BFE3
:20660000D43C0020543E0020E0DA200088DA2000164A2DE9F0410023054616469078E0B92A
:2066200071245C4337197970FEF7A0FEDFF844800F4B98F800103555401A1D68B8700D44E3
:20664000FEF794FE98F800200334821A2946301905F01AFCB878BDE8F08101330C2B02F1C9
:206660007102DBD14FF0FF30F5E700BF694900205C3E0020B54E0020F8B515090F2D08BF75
:20668000102502F00F040F2C07461E4608BF102415B12A4605F0F8FB2A190F2A05DC00213D
:2066A000C2F11002781905F0CFFC9CB10D4EC4F1100022463168384405F0E6FB022C05D100
:2066C0000A2D9FBFFF23FB72FE233B73326814443460F8BD002DFCD031463846BDE8F840C1
:2066E00006F0DFB94C3E00202DE9F8438046894617464C4D002A3BD16B8A53BB0024B5F87C
:20670000CA30002B00F08A80474805F0E5FD10B10120FFF717FB631C40F08280B5F8CA30B2
:20672000A3B90124B8266643AF190D20A7F81290A7F81080FEF7FEFE0146384605F0C9FE7A
:2067400006F118004021284405F0BAFD2046BDE8F88305F1180005F0BFFD28B96B8A002B6B
:20676000CCD04FF0FF34CAE73846FFF7EBFAF5E72B8A83420AD16B8A43B10D20FEF7DAFEED
:206780000146284605F0A8FE002840D1B5F8C83043453ED1B5F8CA30002B3AD00D20FEF736
:2067A000C9FE0146214805F097FE90B301245FFA84F839464046FFF72BFF00281DDA6E8A5F
:2067C0004EB14CB31A4805F087FD064618B10020FFF7B8FA0646B5F8CA3043B13CB91248CD
:2067E00005F07AFD18B10120FFF7ACFA0644002E0FDD39464046FFF70BFF002809DDB82355
:2068000003FB0455AB8A64B21844A8829EE70024CDE74FF0FF3499E72646DCE7013480D04D
:2068200000247FE7DC3C0020AC3D0020943D0020F43C00202DE9F04F002487B0B94DBA4F8D
:206840000D20FEF777FEFEF7A1FB2C703C70FEF79FFDB64EAA463060FEF788FDB946002812
:2068600000F049810420FEF753FEB14B326800B2186013885BBA9DB2C3F3072303F0F80367
:20688000C02B00F08980E02B00F09E80A3465F462546A84C0023A84936680B7099F8003020
:2068A000F25C02F0F000F02800F01B8199F80020B35C03F0E001602940F0FE82901C324415
:2068C0003044567892F901209C49002A0860BCBF013008608846D906009203F0080000F114
:2068E0003F81D8F800200193511C002840F006810322601C05F0C8FAD8F8002012F8041B97
:20690000C8F800208A0802F03002C1F3830042EA8112617840F0600001F00F010A432070A4
:206920006270019B13F00402019205D183490A6812F8010BA0710A6013F003030BBF7F4A0C
:206940007F4A1368D35C09BF13F8011BE3711360E1717206C6F3011340F18281009A002A7F
:20696000BDBF724A99F8001012680022BEBF521892781209002B00F00F817248017801298E
:20698000714904D190F801C0944500F004810026B9460E60B04635E050883B78C5F30A05E1
:2069A00040BA04332246294680B23B70FFF79CFEB0F1FF3F834600F09E80B824634B0127FA
:2069C00004FB0034223465E750883B7892F8048040BAC5F30A0505334246294680B23B707C
:2069E000FFF782FEB0F1FF3F834600F08480B823564AA14603FB00239E8A0127AE4234BFCF
:206A000000260126FEF7B2FCDFF81CA19AF80030834270D8FEF7AAFC9AF80030DFF804C12A
:206A2000C21A9CF800004A4900EBC8089044B8F5A06F8A46E0460A605DD82CB13B492044AE
:206A40000968194405F020FA002D00F04C82B9F1000F0BD0DAF8002098F800303B4913444D
:206A6000B82202FB0B129BB293821384002E00F04182B82303FB0BF334492E48CA18223347
:206A800095821944128C05F0FFF90026314CDFF8A490A27842B123789B4505D16078E11C16
:206AA00009EBC00005F0F0F901360C2E04F17104EFD15FFA8BF0FFF745F92FB998F80050D9
:206AC000DAF800301D44ADB2234B244C1D80236823B1FFF75FF923685B68984700F02EFA87
:206AE00009E002F00F00013312F00E0F087089F800303FF4DBAE07B0BDE8F08F6020207089
:206B00001078820802F0300200F00F00024362700222A01805F0B8F9D8F800200332C8F8C2
:206B20000020FEE6B64E0020B54E00205C3E0020503E002074500020684900204C3E002043
:206B4000BEDC20005E490020D83C0020DC3C0020583E00206949002064500020D43C0020BC
:206B6000A0B9D8F800201178C1F3830141F06001217012F801CB60804FEA9C0101F030013A
:206B800041EA8C116170C8F80020CBE66022228000226280C6E6086004F10808002B5DD032
:206BA000BA4A11680231BA4A0D20D25C03910292FEF7C0FCDDE9022103464046FFF75CFDE6
:206BC00016F0080806F0030206F0040354D0ABB940F2FF23ADF81430531E012B06D8AD4971
:206BE0000B6813F8010B8DF815000B600023AA498A5C05A904F11800FFF73EFD9AF800305C
:206C0000DFF8909228338AF800304E464FF0000AA31D009304F12808019BD9F80010002B71
:206C200000F0E3800A7802F0F000E02853D002F0F802F02A40F0D9801123009A13700B780F
:206C400003F0040903F0F303F03B032B00F21B81DFE813F084009400E400F5001946A2E7C1
:206C60008E4A0D2012F80380FEF764FC424603468B4904F10800A1E723B3009B894E002B90
:206C8000BDBF894B99F800101B684346BCBF5B189B783178B8BF03F00F0301297B4903D010
:206CA0000026B9460E60ADE670789842F8D1784B0E2013F802800E60FEF73CFC4246034639
:206CC000B11C97E7754B0E209E5CFEF733FC3246034673498EE712F0010301F10100C9F8B1
:206CE000000002BF48780231C9F8001031684FEA520EC2F3420C11F8012B18BF00201EF0A0
:206D0000040F0193316040F0BE80684B029213F80CC0009BCDF8008083F800C002F1020C93
:206D20004FEAEC0C0CF1FF3C88F8000088F801C008F1020005F0A8F83168029A5C4B0A446F
:206D4000326098F8012018780132D200D1B208448A44187090445FFA8AFA5DE702220131EB
:206D6000404605F091F80222316808EB0200033105F08AF833680533336010E002224046B2
:206D8000013105F081F83268D3780432A3F580539BB21B0243F0F003A8F802303260B9F12F
:206DA000000F08D10222316808F1060005F06CF8336802333360FEF7D9FA3B4A3368126811
:206DC000002D55D0A5F12803A3EB0A0A1FFA8AFA374A4FEA0A231BB24FEA1A2A4AEA030AEF
:206DE0001378A8F804A0083313702F4A33681268DFF8C0809B1A88F80030002D3ED1FEF7CB
:206E0000B5FA98F800302A4AC31A1078B9460344283B5BBA2E46A846A380F3E54046022265
:206E20004B781144A3F580539BB21B0243F0F00320F8023B05F028F8336804339CE74B78BD
:206E400002311B09A3F575639BB21B0243F0F003A8F8003011F8013C316003F00F03A3F597
:206E600075639BB21B0243F0F003A8F8023096E7A3EB020ACAF1080A8244A7E7A5F12803DF
:206E80001A1222716371B946002683E5D83C0020C2DC20004C3E0020CADC2000C6DC2000AE
:206EA000BCDC20005E4900205C3E0020B8DC2000B64E0020B54E0020412B7FF41CAE0132C2
:206EC000D1B289F8001028222046314404F0DCFF99F80030283389F800309AF800302833C0
:206EE0008AF80030CFE7002F3FF4E8AD002E7FF4EBAD00E6002F3FF4E1ADFCE513B5044631
:206F000001460120FEF7E2F938B92046084BDB68019302B0BDE8104018470024054B1C80A2
:206F2000054B1C7001F06CFB204602B010BD00BF78DA200064500020CB4E0020002108B51C
:206F40000846FEF7C3F9024618B902210548FDF727FD0023044A1380044A1370BDE80840CF
:206F600001F04EBB1C01002064500020CB4E00202DE9F0413C4E88B0338834465BB3B3F5D9
:206F8000A06F64D8394D6A8B2B8B1343AA8B1343EA8B13432A8C13436A8C1343AA8C1343E5
:206FA000EA8C13439BB2002B51D0DFF8C880D8F83430984728B92E4B3080187001F020FB9C
:206FC00009E02B7EFF2B4BD005F1180000F042FA20B100F051F808B0BDE8F081D8F8403088
:206FE00004A89847002837D105F1180000F012FAA0BB05F1180005F026FD0646D8B900F07E
:20700000A3F9054618B3284600F006F9064670B9294602A805F050FD0623324601960093C6
:207020002846012302A900F0CDF8064678B1304600F0EAF815E005F004FD05460028E2D190
:207040003046D8F84C309847304605F0FEFC0023074A23801370B1E704ADD4E71835D2E786
:207060000020FFF74BFFF2E76450002074500020CB4E002088DA200010B5064C238843B1AE
:20708000012001F0B3F823881BB1BDE81040FFF76FBF10BD6450002038B5044623881046CA
:2070A000002B3AD040F24332934244D1872911D008D8012926D002292CD040F24333012089
:2070C000238038BD8829F8D11D4B98420ED105F0D4F8F2E7082200211A4B9D692033A842F0
:2070E00008BF23F8101C013AF7D1E6E7164B9842E3D105F0C2F80028DFD000F089FAFFF7D4
:2071000037FFDAE70028D8D0104B1860052001F06DF8F4E7FFF7B0FFCFE7FDF7B7FB0C4B27
:2071200040211870064805F096F801F011F8094B5B689847C1E7002303202380C1E700BFAD
:20714000603E00208C550020545000207C5500203458002088DA2000074B1B683BB1283371
:20716000186840B15A68054B1978FDF719BC044B1B681833F4E770478455002034580020DE
:207180007C55002010B5044648B1054B9B6C9847044B2146BDE810401868FEF771B810BDAA
:2071A00088DA20002C01002008B5FDF729FF034B03491868BDE80840FDF7B6BF2C0100206A
:2071C0008571200070B504460D481E469DF81020059B0068FDF7D8FF054670B122460346BC
:2071E00004F1100152F8040B8A4243F8040BF9D1044B28469B6C6E749847284670BD00BF71
:207200002C01002088DA2000024B0146186805F0CBB900BF2C01002070B50C4E05463068A4
:20722000FDF796FF044675B90024204670BD10222946204604F0FAFD0028F6D021463068B7
:2072400005F084F90446002CF1D1EDE72C010020024B0146186805F094B900BF2C01002001
:2072600008B5044805F084F8BDE80840024805F041B800BF40010020703E002038B5054649
:207280000A4805F03AF8044600B938BDAC4209D12146064805F03BF82146BDE83840044808
:2072A00005F08AB8204605F060F8ECE7703E00204001002038B5054610B90024204638BD62
:2072C000084805F01AF804460028F6D010222946201D04F0ABFD0028F0D0204605F045F825
:2072E000F1E700BF703E0020F8B50E46054610B900242046F8BDFFF7DDFF044648B9104860
:2073000005F046F804460028F2D001460D4805F01EF82B46251D03F110072A4618685968F0
:20732000083303C2BB421546F7D13EB1314604F1140004F0AFFF00232377DAE70123FBE798
:2073400040010020703E002038B50A4804F0D5FF002504460CB9284638BD251D2846FFF7BA
:207360005BFF10B1437C002BF5D1204604F0FDFF0446EFE7703E002038B50D4804F0BDFF0C
:2073800004460B4D04B938BD237F63B904F1140004F087FF38B12046FFF770FF284604F042
:2073A000ACFF0446EEE7204604F0DFFFF9E700BF703E00202DE9F341144D0446CDE900159E
:2073C0000E4690461F46202203460321104805F03DFB012818D12B6804F110021870204650
:2073E0002B68023350F8041B904243F8041BF9D12868089B86744361099B80F8138007776A
:20740000836102B0BDE8F0810020FAE7BC3E0020F44F002070B506460C4D0D4C2560603505
:207420002068A84201D3002070BD02781AB9236820332360F4E7827C3146D208023004F0BB
:20744000F5FC0028F3D10120EEE700BFF44F0020BC3E0020802213B5074C03460092032161
:2074600020220648019405F0F1FA10B9206802B010BD0020FBE700BFB43E0020104F0020E5
:2074800030B5044648F2FE050A490B4A116060311068884201D3002030BD03783BB1631CCD
:2074A00002D0837CA34202D14388AB42F4D020301060EDE7104F0020B43E0020802337B513
:2074C0000F4D122200930446034605210D48019505F0BCFA01282A460FD12B68187023463D
:2074E000296804F11000023153F8044B834241F8044BF9D1106803B030BD0020FBE700BF39
:20750000B83E0020944F00208023F7B5214C0093054603460E461746032120221E4801945D
:2075200005F094FA012832D12A46236805F1100118702368023352F8040B8A4243F8040BE3
:20754000F9D12068C774DEB9012303750122236812489A7440F2FF23038000234380838095
:20756000C38003814FF480734381FF2303736B7B4373EB89C381FFF7A1FF206803B0F0BDE0
:20758000002331460375183004F084FEDEE70020F4E700BFB43E0020104F0020BA470020EA
:2075A000802213B5074C03460092052112220648019405F04BFA10B9206802B010BD0020CC
:2075C000FBE700BFB83E0020944F002038B50546C8B140F2FF230C48002403804FF48073BB
:2075E0004381FF2344808480C48004810373EB7B43732B8AC381FFF7D3FF044A106008B14A
:2076000005F04BFA2C7038BDBA470020B83E002038B50E4D0E4C256060352068A84206D361
:20762000FFF7AAFEBDE838400A4804F01DBE037843B1037D33B9183004F033FE10B12068DD
:20764000FFF7C4FF236820332360E6E7104F0020B43E0020545000202DE9F84F48F2FE0356
:207660000A8805469A4288462BD00A78FF2A28D000249B46A2461A4A1A4F02F160093A6035
:207680003E684E450AD30CBB2C806C80AC80EC802C816C81AC81EC81BDE8F88F33786BB1B6
:2076A000B37C012B0AD173885B4507D04046B11C05F00DFA82459CBF3446824620363E607B
:2076C000DEE70120FFF7DCFE0446DCE7A31C123453F8042BA34245F8042BF9D1DCE700BFCB
:2076E000104F0020B43E002070B5094EB0684508FDF71CFB0446FDF719FB2402B268A4B225
:207700002044B0FBF2F302FB1300284470BD00BFF84E002073B5304CFFF746FDFFF7A0FD37
:20772000602200212D4804F08FFC0021F822204604F08AFC20222A4B40261A701822294B42
:2077400026711A704FF4A06323604EF66023A360FFF7CAFF4FF47A730025236148F2FE03A2
:20776000E0602575204C2A46238031462B466580A580E5802046CDE90055FFF71BFE204673
:207780001A4905F08EF9294601222046FFF7BCFE40F2FF264FF480732046E3812680658080
:2077A000A580E58025816581A581FFF787FE4FF40073204626806580A580E5802581658155
:2077C000A581E381FFF77AFE0C21094802B0BDE8704004F040BD00BFF84E0020F44F0020B3
:2077E000F14F0020F04F0020BA4700206C500020545000202DE9FF476F46234D234E05F121
:2078000008030FCB87E80F00337895F80780BBB13A221F49AA710A88D21A92B20A80A2F11C
:2078200028010812287103F128002844C3F1040369712C3A011D184404F09CFB002333701E
:20784000144804F05AFD0446DFF844A03CB9104B34701C8000F0D4FE04B0BDE8F087D4F88E
:207860000490B9F1000F09D0BAF8003032782C3B3832414638469BB22A44C847204604F05C
:2078800074FD0446E2E700BF74500020CB4E002064500020C03E0020F8B52C4B2C4C1B7966
:2078A00004F11806E371237E04F10805FF2B31D195E80F0086E80F0031462846FFF7CCFEE4
:2078C000244D2B78BBB13A222349A2710A8803F12800D21A92B20A80C3F10403A2F128016E
:2078E00020440E1261712C3A011D1844267104F041FB00232B7081212B782833E218E15200
:207900000023538005F03BF9C0432B78134A13445880F8BD2F46124A3B4603CBB3421060DC
:2079200051601F4602F10802F6D196E80F0085E80F000B4B0B4D03F110062A4618685968FB
:20794000083303C2B3421546F7D1B9E7F84E002074500020CB4E0020645000209C5000200C
:20796000CA4700208C50002038B504460B480D4604F0C3FC08B901200FE00379A34204D143
:2079800043799D4204D0FF2B02D004F0EEFCF1E78368002BEFD09847002038BDC43E0020DB
:2079A0000146014804F0C6BCC43E00202DE9F84F484D81462B78884693465BB1464A9B5C09
:2079C0003A2B0FD10023454A2B701380BDE8F84F00F016BE424B9A793A2A03D193F9283016
:2079E000002BEFDA3F4C404B04F110063746A2461B6B98473D4A234603CBB34210605160D4
:207A00001C4602F10802F6D1344E28783388344C30339BB2B3F5A06F88BF4FF4A06333803C
:207A200032882146121A04EB4000303A303004F0A1FA60232A7823603A23002A48D084F8AE
:207A400028302B4B62891B79E37123891343A2891343E2891343228A1343628A1343A28AD1
:207A60001343E28A13439BB2002BABD0214B0FCB8AE80F001D4B1B78FF2B05D1B9F1040F7C
:207A8000A0D1B8F1020F9DD118491A48FFF7E4FD95F800A058460AF12803E21804F8039039
:207AA00082F8018000F094FD134B43F80A003388283B1A122271002263712B783B445A80D8
:207AC00005F05DF8C0432B781F447880BDE8F88FA371B6E7CB4E00209C5000206450002065
:207AE000745000208C50002088DA2000CA470020F84E00207C500020A05000202DE9F0414A
:207B00001D466023184C0F4623603A23A371174B04F118081B791646E3712B1D1A126371CF
:207B2000014622714046102204F0AEF94146DFF8448004F10800FFF78FFD98F800302C3556
:207B400028331F551A1900235670538005F017F8C04398F800301C44054B60851D80BDE8C9
:207B6000F041FFF705BA00BF74500020F84E002064500020CB4E002008B50448FFF710FFFB
:207B8000BDE808400248FFF70BBF00BF580100204C0100202DE9F04F8E4C8F4EE37987B0AA
:207BA000FF2B40F01081337804F12C055A191279FF2A00F0088104F128010B445A78029197
:207BC000002A40F00081854B854F1A6014229846DFF82C923A7004F1080A3078814A3B782C
:207BE00012882C3003449342C0F2818020440430FFF730FC7C4B9A461860002800F0E3806C
:207C0000628923891343A2891343E2891343228A1343628A1343A28A1343E28A13439BB260
:207C2000002B00F0D080714F3846FFF713FCB846002840F0C88040F2FF23228B07F11009E6
:207C40009A4240F0AD80A28B638B1343E28B1343228C13439BB2002B40F0A280638CB3F552
:207C6000807F40F09D8094F82430FF2B40F0988097E80F0089E80F0033781D44043595E896
:207C80000F0087E80F006022594B0025C4E9002388232385E023DAF8001010220231554802
:207CA00084F82C30357004F0EFF80222337852494033E718E254B81C7A70082204F0E4F8A2
:207CC0000622294607F10A0004F0BEF9029A337813445D8004F053FFC043029A33781344FE
:207CE000588050233F4A138007B0BDE8F08FE1184A78002A67D014F803B0BBF1010F27D1B3
:207D000062892389C8F800101343A2891343E2891343228A1343628A1343A28A1343E28A32
:207D200013439BB2002B4ED00822023104A804F0ABF85046FFF770FA0246C9F8000080B97F
:207D40000523019000935046022304A9FFF73AFA3A78337813442B445B7802EBC3023A70F3
:207D60003BE7FFF751FA034668B3D8F80000194608220230039304F059F8039B50B15A4697
:207D8000184604A904F018FCE8B1D9F8003002225A74DDE7D9F800305A7C002AD8D1F6E7F9
:207DA0001648FFF757FBDAF8003083420BD198E80F0089E80F0033781D44043595E80F009A
:207DC00088E80F005FE70023064A3370138000F017FC89E774500020CB4E0020D03E002077
:207DE000B94E002064500020C83E00207C50002000283AFFA45000206C5000208C50002029
:207E0000CC3E00200148FFF7CBBD00BF640100201FB50C46074B01469B69684698471022AB
:207E20002146684604F002F8B0FA80F0400904B010BD00BF88DA200070B506460B480D4603
:207E400004F05BFA044608B9204670BD1DB9204604F08BFAF6E7A3689E42F8D12946204620
:207E6000FFF7D6FF0028F2D0EEE700BFD43E002030B505460C460E4B85B05B696846984726
:207E800021462846FFF7D8FF694604462846FFF7D3FF11234CB1844201D0013B03D1031B1B
:207EA0005842584102E06469F4E7204605B030BD88DA20002DE9F843904606460F469946D4
:207EC000FFF7BAFF414604463046FFF7B5FF0546B8F1000F0DD060B902464FF0FF334146C9
:207EE0003046FFF7E7FF054618B900242046BDE8F8837CB9154804F04BFA04460028F4D069
:207F0000002301464361124804F014FA114A1368013313600822C4E90196B91804F10C003A
:207F200003F0B2FF39463046FFF7A2FF58B1D4F81480394630466561FFF79AFF0028D5D190
:207F4000C4F81480D2E76561D0E700BF70010020D43E002058400020002208B5044B0548E6
:207F60001A6004F005FABDE80840034804F0C2B95840002070010020D43E00202DE9F84321
:207F80000546194804F0B9F90446174FDFF85C90DFF85C800CB9BDE8F883204604F0E5F94C
:207FA00063680646C3B9384604F0A7F970B92146384604F0ACF92146484604F0FDF9D8F8C6
:207FC0000030013BC8F800303446E3E74369A342EDD004F0CAF9E9E75A1CF5D0AB4294BFB1
:207FE00000235B1B6360EFE7D43E002070010020584000202DE9F0410D4804F07EF9044683
:208000000B4FDFF834800B4E0CB9BDE8F081204604F0ABF905462146384604F078F921464D
:20802000404604F0C9F933682C46013B3360EBE7D43E0020584000207001002037B5124B92
:20804000124D1C782B7905F10801C4EB03226B7913449BB2ADF80630BDF8063020221844CA
:2080600080B204F063FDBDF8062004F1280192B2294404F05BFD18B140BA80B203B030BDEF
:208080004FF6FF70FAE700BFCB4E00207450002002200021F8B5294F294D3A78294C283210
:2080A00053195E782070F6000736864202DA21B3207022E0131805EB030CEB5C012B06D03E
:2080C000632B09D0DBB901300121C0B2EDE7831C9CF801001844F7E701B120701A4B9B6BF1
:2080E000984708B90120F8BD22783B78174913440B445B7802321A4422700020F3E703F0D3
:20810000C003802B07D0C02B0ED0402B12D10029E8D02070E6E701B12070024402210420F6
:20812000FFF744FC0220DEE701B120702B7EFF2BF3D1D7E79CF801300230CBE7CB4E0020A9
:2081400074500020CC4E002088DA20009C50002008B5FFF7DFFAFFF70FFDFFF753FE4FF45B
:208160008062094B1A800022084B1A821A86A3F85020A3F87020A3F89020A3F8B020A3F8F7
:20818000D020A3F8F02008BDDA4700208C55002070B5134B1D780DB3124E05F1270132882D
:2081A00091424FF0000105DB19703180BDE8704000F026BA0C4C197004F1280094F828308B
:2081C000283A521B4119A37103F0D4FE33885B1B9BB23380283B1A122271637170BD00BF8A
:2081E000CB4E0020645000207450002004282DE9F047AA4D1CD0AA49AA4CAB4A0528894658
:2082000092460C6014604AD1A84B1B681B8A002B00F0128100230C3C1460A54AA548138074
:20822000082203602B80A44B0C601A70FEF794FF9F4B1A88002A00F0FF8002F130039F4C63
:208240009BB22B80283B19126371602300262380964B21711B680832197D52BAE171112122
:20826000A285E6851A8AA17122855A8A04F1180562850FCB85E80F00294604F10800FFF77A
:20828000EBF9874B04F13C021A6004F07BFCC04380B2002800F08781E08566803DE114F846
:2082A0003C3C3C3C03F0F003602B40F0C580227963792888110203EB0222824200F3BC80A9
:2082C00028330B442B80237AFF2B00F0B5807C4BA21D1A6000227B4E7B4F32703A70A27941
:2082E0009846AAB901233B70FFF7D2FE012800F0A380022800F0118150B9337803F12802EE
:208300002244C8F800205278083303EBC20333706E48FFF79FF8002840F0B1806B48FFF747
:208320003FF9002840F0AB80217E2389FF293CD048F2FE00228B824237D0834239D061899B
:208340000B43A1890B43E1890B43218A0B43618A0B43A18A0B43E18A0B439BB2002B6BD088
:20836000638B1343A28B1343E28B1343228C1343628C1343A28C13439BB21BB9E38CB3F56F
:20838000807F59D02B88B3F5A06F06D94FF4A06200210220FFF70AFBBFE0E379012B00F2D0
:2083A000BA80002203201146F4E748F2FE02934242D1628B238B1343A28B1343E28B1343B3
:2083C000228C1343628C1343A28C13439BB21BB9E38CB3F5807F2FD0FF292DD03B48FFF7FD
:2083E00019F8024640BB02210120D3E73B2B23D03C2B6DD03A2B4ED104F0C1FB4FF6FF7343
:20840000984219D133782833E2185178E05CFFF7ABFA012804D100232B80337000F0F0F8B1
:208420002B88002B79D107E0FFF7B2FEE38D002B78D1638D002B7CD10024224B2C801C7072
:2084400000F0DEF8204B1C701B4B1C7068E03B78D80720D443F001033B70FFF719FE012887
:20846000EAD0022859D050B9337803F128022244C8F800205278083303EBC2033370D8F8AC
:20848000002013782C2BD7D0B0D8112BCCD02B2B29D0002BDBD00121121B3AE06450002071
:2084A00080550020B0500020685000207C550020885500208455002074550020745000201B
:2084C00078550020CB4E0020CA4E00208C5000203B78990704D55806DDD443F04003BBE7EF
:2084E00043F00203B8E73B785907D4D443F004033B70337803F128022244D1780029B7D0DD
:208500002B4BDB6B9847014600287FF43BAF32782A3204203EE7013BE3710022254B1A70F9
:20852000BDE8F08704F02EFB4FF6FF73984283D17FE7214F214EDFF89480376007F5807763
:208540003168B94202D3002204214DE70B8A33B3628D9A4223D14B8A13B1228D9A421ED1EA
:208560000B68B3B94B68A3B98B6893B9CB6883B92B880220303B2B800023114A1149C9F8DB
:2085800000200B60CAF800200A490F4A087013804CE61022404603F049FC0028E8D033681A
:2085A00020333360CCE74FF6FF73E38575E600BF88DA2000745500208C5500207C5500208C
:2085C000A450002084550020885500207C500020054BC0F3072203EA0023000C40BA13430D
:2085E00080B240EA0340704700FFFF0005289ABF024B33F810000020704700BFDC47002040
:2086000010B5044C0C220021204603F01DFD0023238110BDDC47002038B5144C0D46227872
:20862000B2B9B0B9FD22124B1A8058809880D880188158819881D8818DB90E490C4804F03F
:2086400030FA012200210A48FEF75EFF0123237038BD01460822064803F016FCECE708229B
:208660000548A91803F010FCEBE700BFCD4E0020E84700206C500020F047002013B50021B6
:2086800000240846FFF7C8FF2246154B197E59B193F82A10012907D1997EFE2902D1D97E13
:2086A000802901D003F11A040132032A03F12003ECD12046FEF7CEFE04B968B101F0EEFE20
:2086C0004023024621460020009300F0FDFA00F051F9002002B010BD4FF0FF30FAE700BF07
:2086E000F84E0020044B187B28B1B3F84A00DB8AC31A5842584170478C5600202DE9F843E5
:2087000090461A4CDFF8689005460E464FF4B072002120461F4603F097FCB9F8203043454F
:2087200002D00020BDE8F88338469DF82420089901F0FCFE0028F4D04FF0FF32A264A4F846
:208740004C204FF2F002F02365730125A4F85A203146102204F11C00C4F80890E373257357
:2087600084F85C3003F090FB2846DBE78C560020AC01002013B590F851300446019390F83D
:20878000503001460093028A00F13C03007EFFF7B5FFF0B1104B627D618B9A73626D0120D7
:2087A0001A60226A19825A61227F9A74627F1A76E28B5A83002283F85E20A27D83F85620C8
:2087C000227D83F85520E27D83F85420E27E83F8572002B010BD00BF8C56002030B50A4AF1
:2087E000137B7BB168B1034602F11C052C322C4603CC944218605960254603F10803F6D172
:20880000012030BD1846FCE78C56002010B5FFF769FF104C60B994F85C200020531CDBB24B
:20882000120658BF03F07F0384F85C3001F064F8FCF7D2FB01F09CFAFFF7DCFB01F080FDBD
:2088400094F841305B0602D5034801F05BFE0023237310BD8C560020B85600200322024B26
:2088600083F85E2001F098BD8C56002008B50F4B1A7BD2B11A6D511C17D0824208D80022E7
:208880001A65032283F85E20BDE8084001F084BD121AB2F5967F1A6507D2586C28B104F04B
:2088A000DBF9BDE8084000F045BF08BD8C56002008B5074B0146187B48B193F8402003F17B
:2088C0001C00D20803F0B2FAB0FA80F0400908BD8C56002010B50B4C237B93B1FFF702FFE4
:2088E00008B984F85E00A3681B689847FCF774FB01F03EFA044801F0D9FBBDE8104001F0EE
:208900004BBD10BD8C560020DBDC200008B5FFF7E9FEB8B10C4B93F854104A1C0806D2B268
